{
  "address": "0x5FbDB2315678afecb367f032d93F642f64180aa3",
  "abi": [
    {
      "inputs": [
        {
          "internalType": "string",
          "name": "nftTokenUri",
          "type": "string"
        },
        {
          "internalType": "string",
          "name": "name",
          "type": "string"
        },
        {
          "internalType": "string",
          "name": "symbol",
          "type": "string"
        },
        {
          "internalType": "uint256",
          "name": "mintFee",
          "type": "uint256"
        }
      ],
      "stateMutability": "nonpayable",
      "type": "constructor"
    },
    {
      "inputs": [
        {
          "internalType": "uint256",
          "name": "insufficientMintFee",
          "type": "uint256"
        }
      ],
      "name": "NFT__InsufficientMintFee",
      "type": "error"
    },
    {
      "inputs": [],
      "name": "NFT__WithdrawTransactionFailed",
      "type": "error"
    },
    {
      "anonymous": false,
      "inputs": [
        {
          "indexed": true,
          "internalType": "address",
          "name": "owner",
          "type": "address"
        },
        {
          "indexed": true,
          "internalType": "address",
          "name": "approved",
          "type": "address"
        },
        {
          "indexed": true,
          "internalType": "uint256",
          "name": "tokenId",
          "type": "uint256"
        }
      ],
      "name": "Approval",
      "type": "event"
    },
    {
      "anonymous": false,
      "inputs": [
        {
          "indexed": true,
          "internalType": "address",
          "name": "owner",
          "type": "address"
        },
        {
          "indexed": true,
          "internalType": "address",
          "name": "operator",
          "type": "address"
        },
        {
          "indexed": false,
          "internalType": "bool",
          "name": "approved",
          "type": "bool"
        }
      ],
      "name": "ApprovalForAll",
      "type": "event"
    },
    {
      "anonymous": false,
      "inputs": [
        {
          "indexed": true,
          "internalType": "address",
          "name": "owner",
          "type": "address"
        },
        {
          "indexed": true,
          "internalType": "uint256",
          "name": "tokenId",
          "type": "uint256"
        },
        {
          "indexed": true,
          "internalType": "uint256",
          "name": "value",
          "type": "uint256"
        }
      ],
      "name": "NFTMinted",
      "type": "event"
    },
    {
      "anonymous": false,
      "inputs": [
        {
          "indexed": true,
          "internalType": "address",
          "name": "previousOwner",
          "type": "address"
        },
        {
          "indexed": true,
          "internalType": "address",
          "name": "newOwner",
          "type": "address"
        }
      ],
      "name": "OwnershipTransferred",
      "type": "event"
    },
    {
      "anonymous": false,
      "inputs": [
        {
          "indexed": true,
          "internalType": "address",
          "name": "from",
          "type": "address"
        },
        {
          "indexed": true,
          "internalType": "address",
          "name": "to",
          "type": "address"
        },
        {
          "indexed": true,
          "internalType": "uint256",
          "name": "tokenId",
          "type": "uint256"
        }
      ],
      "name": "Transfer",
      "type": "event"
    },
    {
      "anonymous": false,
      "inputs": [
        {
          "indexed": true,
          "internalType": "uint256",
          "name": "amount",
          "type": "uint256"
        },
        {
          "indexed": true,
          "internalType": "uint256",
          "name": "timestamp",
          "type": "uint256"
        }
      ],
      "name": "Withdraw",
      "type": "event"
    },
    {
      "inputs": [
        {
          "internalType": "address",
          "name": "to",
          "type": "address"
        },
        {
          "internalType": "uint256",
          "name": "tokenId",
          "type": "uint256"
        }
      ],
      "name": "approve",
      "outputs": [],
      "stateMutability": "nonpayable",
      "type": "function"
    },
    {
      "inputs": [
        {
          "internalType": "address",
          "name": "owner",
          "type": "address"
        }
      ],
      "name": "balanceOf",
      "outputs": [
        {
          "internalType": "uint256",
          "name": "",
          "type": "uint256"
        }
      ],
      "stateMutability": "view",
      "type": "function"
    },
    {
      "inputs": [
        {
          "internalType": "uint256",
          "name": "tokenId",
          "type": "uint256"
        }
      ],
      "name": "getApproved",
      "outputs": [
        {
          "internalType": "address",
          "name": "",
          "type": "address"
        }
      ],
      "stateMutability": "view",
      "type": "function"
    },
    {
      "inputs": [],
      "name": "getMintFee",
      "outputs": [
        {
          "internalType": "uint256",
          "name": "",
          "type": "uint256"
        }
      ],
      "stateMutability": "view",
      "type": "function"
    },
    {
      "inputs": [],
      "name": "getNftTokenUri",
      "outputs": [
        {
          "internalType": "string",
          "name": "",
          "type": "string"
        }
      ],
      "stateMutability": "view",
      "type": "function"
    },
    {
      "inputs": [],
      "name": "getTokenCounter",
      "outputs": [
        {
          "internalType": "uint256",
          "name": "",
          "type": "uint256"
        }
      ],
      "stateMutability": "view",
      "type": "function"
    },
    {
      "inputs": [
        {
          "internalType": "address",
          "name": "owner",
          "type": "address"
        },
        {
          "internalType": "address",
          "name": "operator",
          "type": "address"
        }
      ],
      "name": "isApprovedForAll",
      "outputs": [
        {
          "internalType": "bool",
          "name": "",
          "type": "bool"
        }
      ],
      "stateMutability": "view",
      "type": "function"
    },
    {
      "inputs": [],
      "name": "mintNft",
      "outputs": [],
      "stateMutability": "payable",
      "type": "function"
    },
    {
      "inputs": [],
      "name": "name",
      "outputs": [
        {
          "internalType": "string",
          "name": "",
          "type": "string"
        }
      ],
      "stateMutability": "view",
      "type": "function"
    },
    {
      "inputs": [],
      "name": "owner",
      "outputs": [
        {
          "internalType": "address",
          "name": "",
          "type": "address"
        }
      ],
      "stateMutability": "view",
      "type": "function"
    },
    {
      "inputs": [
        {
          "internalType": "uint256",
          "name": "tokenId",
          "type": "uint256"
        }
      ],
      "name": "ownerOf",
      "outputs": [
        {
          "internalType": "address",
          "name": "",
          "type": "address"
        }
      ],
      "stateMutability": "view",
      "type": "function"
    },
    {
      "inputs": [],
      "name": "renounceOwnership",
      "outputs": [],
      "stateMutability": "nonpayable",
      "type": "function"
    },
    {
      "inputs": [
        {
          "internalType": "address",
          "name": "from",
          "type": "address"
        },
        {
          "internalType": "address",
          "name": "to",
          "type": "address"
        },
        {
          "internalType": "uint256",
          "name": "tokenId",
          "type": "uint256"
        }
      ],
      "name": "safeTransferFrom",
      "outputs": [],
      "stateMutability": "nonpayable",
      "type": "function"
    },
    {
      "inputs": [
        {
          "internalType": "address",
          "name": "from",
          "type": "address"
        },
        {
          "internalType": "address",
          "name": "to",
          "type": "address"
        },
        {
          "internalType": "uint256",
          "name": "tokenId",
          "type": "uint256"
        },
        {
          "internalType": "bytes",
          "name": "data",
          "type": "bytes"
        }
      ],
      "name": "safeTransferFrom",
      "outputs": [],
      "stateMutability": "nonpayable",
      "type": "function"
    },
    {
      "inputs": [
        {
          "internalType": "address",
          "name": "operator",
          "type": "address"
        },
        {
          "internalType": "bool",
          "name": "approved",
          "type": "bool"
        }
      ],
      "name": "setApprovalForAll",
      "outputs": [],
      "stateMutability": "nonpayable",
      "type": "function"
    },
    {
      "inputs": [
        {
          "internalType": "bytes4",
          "name": "interfaceId",
          "type": "bytes4"
        }
      ],
      "name": "supportsInterface",
      "outputs": [
        {
          "internalType": "bool",
          "name": "",
          "type": "bool"
        }
      ],
      "stateMutability": "view",
      "type": "function"
    },
    {
      "inputs": [],
      "name": "symbol",
      "outputs": [
        {
          "internalType": "string",
          "name": "",
          "type": "string"
        }
      ],
      "stateMutability": "view",
      "type": "function"
    },
    {
      "inputs": [
        {
          "internalType": "uint256",
          "name": "tokenId",
          "type": "uint256"
        }
      ],
      "name": "tokenURI",
      "outputs": [
        {
          "internalType": "string",
          "name": "",
          "type": "string"
        }
      ],
      "stateMutability": "view",
      "type": "function"
    },
    {
      "inputs": [
        {
          "internalType": "address",
          "name": "from",
          "type": "address"
        },
        {
          "internalType": "address",
          "name": "to",
          "type": "address"
        },
        {
          "internalType": "uint256",
          "name": "tokenId",
          "type": "uint256"
        }
      ],
      "name": "transferFrom",
      "outputs": [],
      "stateMutability": "nonpayable",
      "type": "function"
    },
    {
      "inputs": [
        {
          "internalType": "address",
          "name": "newOwner",
          "type": "address"
        }
      ],
      "name": "transferOwnership",
      "outputs": [],
      "stateMutability": "nonpayable",
      "type": "function"
    },
    {
      "inputs": [],
      "name": "withdraw",
      "outputs": [],
      "stateMutability": "nonpayable",
      "type": "function"
    }
  ],
  "transactionHash": "0x13b471b36665cd28eeb3fc953d287a53a96cc2d098a4e2dc912f607401830f91",
  "args": [
    "ipfs://QmPbyjK7GRvFoG4sLRBK8ojjpSovg4PspoWMb2ofe5Lxvi",
    "Gold Sonic Cat",
    "GSC",
    "10000000000000000"
  ],
  "numDeployments": 1,
  "solcInputHash": "3516746b137992a89ed1a53b8fa6740d",
  "bytecode": "0x60a06040523480156200001157600080fd5b5060405162003a9c38038062003a9c833981810160405281019062000037919062000347565b828281600090816200004a919062000657565b5080600190816200005c919062000657565b5050506200007f62000073620000ab60201b60201c565b620000b360201b60201c565b836008908162000090919062000657565b5080608081815250506000600981905550505050506200073e565b600033905090565b6000600760009054906101000a900473ffffffffffffffffffffffffffffffffffffffff16905081600760006101000a81548173ffffffffffffffffffffffffffffffffffffffff021916908373ffffffffffffffffffffffffffffffffffffffff1602179055508173ffffffffffffffffffffffffffffffffffffffff168173ffffffffffffffffffffffffffffffffffffffff167f8be0079c531659141344cd1fd0a4f28419497f9722a3daafe3b4186f6b6457e060405160405180910390a35050565b6000604051905090565b600080fd5b600080fd5b600080fd5b600080fd5b6000601f19601f8301169050919050565b7f4e487b7100000000000000000000000000000000000000000000000000000000600052604160045260246000fd5b620001e28262000197565b810181811067ffffffffffffffff82111715620002045762000203620001a8565b5b80604052505050565b60006200021962000179565b9050620002278282620001d7565b919050565b600067ffffffffffffffff8211156200024a5762000249620001a8565b5b620002558262000197565b9050602081019050919050565b60005b838110156200028257808201518184015260208101905062000265565b60008484015250505050565b6000620002a56200029f846200022c565b6200020d565b905082815260208101848484011115620002c457620002c362000192565b5b620002d184828562000262565b509392505050565b600082601f830112620002f157620002f06200018d565b5b8151620003038482602086016200028e565b91505092915050565b6000819050919050565b62000321816200030c565b81146200032d57600080fd5b50565b600081519050620003418162000316565b92915050565b6000806000806080858703121562000364576200036362000183565b5b600085015167ffffffffffffffff81111562000385576200038462000188565b5b6200039387828801620002d9565b945050602085015167ffffffffffffffff811115620003b757620003b662000188565b5b620003c587828801620002d9565b935050604085015167ffffffffffffffff811115620003e957620003e862000188565b5b620003f787828801620002d9565b92505060606200040a8782880162000330565b91505092959194509250565b600081519050919050565b7f4e487b7100000000000000000000000000000000000000000000000000000000600052602260045260246000fd5b600060028204905060018216806200046957607f821691505b6020821081036200047f576200047e62000421565b5b50919050565b60008190508160005260206000209050919050565b60006020601f8301049050919050565b600082821b905092915050565b600060088302620004e97fffffffffffffffffffffffffffffffffffffffffffffffffffffffffffffffff82620004aa565b620004f58683620004aa565b95508019841693508086168417925050509392505050565b6000819050919050565b600062000538620005326200052c846200030c565b6200050d565b6200030c565b9050919050565b6000819050919050565b620005548362000517565b6200056c62000563826200053f565b848454620004b7565b825550505050565b600090565b6200058362000574565b6200059081848462000549565b505050565b5b81811015620005b857620005ac60008262000579565b60018101905062000596565b5050565b601f8211156200060757620005d18162000485565b620005dc846200049a565b81016020851015620005ec578190505b62000604620005fb856200049a565b83018262000595565b50505b505050565b600082821c905092915050565b60006200062c600019846008026200060c565b1980831691505092915050565b600062000647838362000619565b9150826002028217905092915050565b620006628262000416565b67ffffffffffffffff8111156200067e576200067d620001a8565b5b6200068a825462000450565b62000697828285620005bc565b600060209050601f831160018114620006cf5760008415620006ba578287015190505b620006c6858262000639565b86555062000736565b601f198416620006df8662000485565b60005b828110156200070957848901518255600182019150602085019450602081019050620006e2565b8683101562000729578489015162000725601f89168262000619565b8355505b6001600288020188555050505b505050505050565b60805161333b6200076160003960008181610a5f0152610c4b015261333b6000f3fe60806040526004361061012a5760003560e01c8063715018a6116100ab578063a22cb4651161006f578063a22cb465146103ce578063b88d4fde146103f7578063c2229fea14610420578063c87b56dd1461042a578063e985e9c514610467578063f2fde38b146104a45761012a565b8063715018a61461030b5780637a5caab3146103225780637cc824e21461034d5780638da5cb5b1461037857806395d89b41146103a35761012a565b80633ccfd60b116100f25780633ccfd60b1461022657806342842e0e1461023d5780636352211e146102665780636e02007d146102a357806370a08231146102ce5761012a565b806301ffc9a71461012f57806306fdde031461016c578063081812fc14610197578063095ea7b3146101d457806323b872dd146101fd575b600080fd5b34801561013b57600080fd5b506101566004803603810190610151919061214c565b6104cd565b6040516101639190612194565b60405180910390f35b34801561017857600080fd5b506101816105af565b60405161018e919061223f565b60405180910390f35b3480156101a357600080fd5b506101be60048036038101906101b99190612297565b610641565b6040516101cb9190612305565b60405180910390f35b3480156101e057600080fd5b506101fb60048036038101906101f6919061234c565b610687565b005b34801561020957600080fd5b50610224600480360381019061021f919061238c565b61079e565b005b34801561023257600080fd5b5061023b6107fe565b005b34801561024957600080fd5b50610264600480360381019061025f919061238c565b6108e0565b005b34801561027257600080fd5b5061028d60048036038101906102889190612297565b610900565b60405161029a9190612305565b60405180910390f35b3480156102af57600080fd5b506102b8610986565b6040516102c591906123ee565b60405180910390f35b3480156102da57600080fd5b506102f560048036038101906102f09190612409565b610990565b60405161030291906123ee565b60405180910390f35b34801561031757600080fd5b50610320610a47565b005b34801561032e57600080fd5b50610337610a5b565b60405161034491906123ee565b60405180910390f35b34801561035957600080fd5b50610362610a83565b60405161036f919061223f565b60405180910390f35b34801561038457600080fd5b5061038d610b15565b60405161039a9190612305565b60405180910390f35b3480156103af57600080fd5b506103b8610b3f565b6040516103c5919061223f565b60405180910390f35b3480156103da57600080fd5b506103f560048036038101906103f09190612462565b610bd1565b005b34801561040357600080fd5b5061041e600480360381019061041991906125d7565b610be7565b005b610428610c49565b005b34801561043657600080fd5b50610451600480360381019061044c9190612297565b610db0565b60405161045e919061223f565b60405180910390f35b34801561047357600080fd5b5061048e6004803603810190610489919061265a565b610ec2565b60405161049b9190612194565b60405180910390f35b3480156104b057600080fd5b506104cb60048036038101906104c69190612409565b610f56565b005b60007f80ac58cd000000000000000000000000000000000000000000000000000000007bffffffffffffffffffffffffffffffffffffffffffffffffffffffff1916827bffffffffffffffffffffffffffffffffffffffffffffffffffffffff1916148061059857507f5b5e139f000000000000000000000000000000000000000000000000000000007bffffffffffffffffffffffffffffffffffffffffffffffffffffffff1916827bffffffffffffffffffffffffffffffffffffffffffffffffffffffff1916145b806105a857506105a782610fd9565b5b9050919050565b6060600080546105be906126c9565b80601f01602080910402602001604051908101604052809291908181526020018280546105ea906126c9565b80156106375780601f1061060c57610100808354040283529160200191610637565b820191906000526020600020905b81548152906001019060200180831161061a57829003601f168201915b5050505050905090565b600061064c82611043565b6004600083815260200190815260200160002060009054906101000a900473ffffffffffffffffffffffffffffffffffffffff169050919050565b600061069282610900565b90508073ffffffffffffffffffffffffffffffffffffffff168373ffffffffffffffffffffffffffffffffffffffff1603610702576040517f08c379a00000000000000000000000000000000000000000000000000000000081526004016106f99061276c565b60405180910390fd5b8073ffffffffffffffffffffffffffffffffffffffff1661072161108e565b73ffffffffffffffffffffffffffffffffffffffff161480610750575061074f8161074a61108e565b610ec2565b5b61078f576040517f08c379a0000000000000000000000000000000000000000000000000000000008152600401610786906127fe565b60405180910390fd5b6107998383611096565b505050565b6107af6107a961108e565b8261114f565b6107ee576040517f08c379a00000000000000000000000000000000000000000000000000000000081526004016107e590612890565b60405180910390fd5b6107f98383836111e4565b505050565b6108066114dd565b600047905060003373ffffffffffffffffffffffffffffffffffffffff1682604051610831906128e1565b60006040518083038185875af1925050503d806000811461086e576040519150601f19603f3d011682016040523d82523d6000602084013e610873565b606091505b50509050806108ae576040517f831a6fde00000000000000000000000000000000000000000000000000000000815260040160405180910390fd5b42827f56ca301a9219608c91e7bcee90e083c19671d2cdcc96752c7af291cee5f9c8c860405160405180910390a35050565b6108fb83838360405180602001604052806000815250610be7565b505050565b60008061090c8361155b565b9050600073ffffffffffffffffffffffffffffffffffffffff168173ffffffffffffffffffffffffffffffffffffffff160361097d576040517f08c379a000000000000000000000000000000000000000000000000000000000815260040161097490612942565b60405180910390fd5b80915050919050565b6000600954905090565b60008073ffffffffffffffffffffffffffffffffffffffff168273ffffffffffffffffffffffffffffffffffffffff1603610a00576040517f08c379a00000000000000000000000000000000000000000000000000000000081526004016109f7906129d4565b60405180910390fd5b600360008373ffffffffffffffffffffffffffffffffffffffff1673ffffffffffffffffffffffffffffffffffffffff168152602001908152602001600020549050919050565b610a4f6114dd565b610a596000611598565b565b60007f0000000000000000000000000000000000000000000000000000000000000000905090565b606060088054610a92906126c9565b80601f0160208091040260200160405190810160405280929190818152602001828054610abe906126c9565b8015610b0b5780601f10610ae057610100808354040283529160200191610b0b565b820191906000526020600020905b815481529060010190602001808311610aee57829003601f168201915b5050505050905090565b6000600760009054906101000a900473ffffffffffffffffffffffffffffffffffffffff16905090565b606060018054610b4e906126c9565b80601f0160208091040260200160405190810160405280929190818152602001828054610b7a906126c9565b8015610bc75780601f10610b9c57610100808354040283529160200191610bc7565b820191906000526020600020905b815481529060010190602001808311610baa57829003601f168201915b5050505050905090565b610be3610bdc61108e565b838361165e565b5050565b610bf8610bf261108e565b8361114f565b610c37576040517f08c379a0000000000000000000000000000000000000000000000000000000008152600401610c2e90612890565b60405180910390fd5b610c43848484846117ca565b50505050565b7f0000000000000000000000000000000000000000000000000000000000000000341015610cae57346040517f6c80ca77000000000000000000000000000000000000000000000000000000008152600401610ca591906123ee565b60405180910390fd5b600060095490506001600954610cc49190612a23565b600981905550610cd43382611826565b610d688160088054610ce5906126c9565b80601f0160208091040260200160405190810160405280929190818152602001828054610d11906126c9565b8015610d5e5780601f10610d3357610100808354040283529160200191610d5e565b820191906000526020600020905b815481529060010190602001808311610d4157829003601f168201915b5050505050611844565b34813373ffffffffffffffffffffffffffffffffffffffff167f3a8a89b59a31c39a36febecb987e0657ab7b7c73b60ebacb44dcb9886c2d5c8a60405160405180910390a450565b6060610dbb82611043565b6000600660008481526020019081526020016000208054610ddb906126c9565b80601f0160208091040260200160405190810160405280929190818152602001828054610e07906126c9565b8015610e545780601f10610e2957610100808354040283529160200191610e54565b820191906000526020600020905b815481529060010190602001808311610e3757829003601f168201915b505050505090506000610e656118b1565b90506000815103610e7a578192505050610ebd565b600082511115610eaf578082604051602001610e97929190612a93565b60405160208183030381529060405292505050610ebd565b610eb8846118c8565b925050505b919050565b6000600560008473ffffffffffffffffffffffffffffffffffffffff1673ffffffffffffffffffffffffffffffffffffffff16815260200190815260200160002060008373ffffffffffffffffffffffffffffffffffffffff1673ffffffffffffffffffffffffffffffffffffffff16815260200190815260200160002060009054906101000a900460ff16905092915050565b610f5e6114dd565b600073ffffffffffffffffffffffffffffffffffffffff168173ffffffffffffffffffffffffffffffffffffffff1603610fcd576040517f08c379a0000000000000000000000000000000000000000000000000000000008152600401610fc490612b29565b60405180910390fd5b610fd681611598565b50565b60007f01ffc9a7000000000000000000000000000000000000000000000000000000007bffffffffffffffffffffffffffffffffffffffffffffffffffffffff1916827bffffffffffffffffffffffffffffffffffffffffffffffffffffffff1916149050919050565b61104c81611930565b61108b576040517f08c379a000000000000000000000000000000000000000000000000000000000815260040161108290612942565b60405180910390fd5b50565b600033905090565b816004600083815260200190815260200160002060006101000a81548173ffffffffffffffffffffffffffffffffffffffff021916908373ffffffffffffffffffffffffffffffffffffffff160217905550808273ffffffffffffffffffffffffffffffffffffffff1661110983610900565b73ffffffffffffffffffffffffffffffffffffffff167f8c5be1e5ebec7d5bd14f71427d1e84f3dd0314c0f7b2291e5b200ac8c7c3b92560405160405180910390a45050565b60008061115b83610900565b90508073ffffffffffffffffffffffffffffffffffffffff168473ffffffffffffffffffffffffffffffffffffffff16148061119d575061119c8185610ec2565b5b806111db57508373ffffffffffffffffffffffffffffffffffffffff166111c384610641565b73ffffffffffffffffffffffffffffffffffffffff16145b91505092915050565b8273ffffffffffffffffffffffffffffffffffffffff1661120482610900565b73ffffffffffffffffffffffffffffffffffffffff161461125a576040517f08c379a000000000000000000000000000000000000000000000000000000000815260040161125190612bbb565b60405180910390fd5b600073ffffffffffffffffffffffffffffffffffffffff168273ffffffffffffffffffffffffffffffffffffffff16036112c9576040517f08c379a00000000000000000000000000000000000000000000000000000000081526004016112c090612c4d565b60405180910390fd5b6112d68383836001611971565b8273ffffffffffffffffffffffffffffffffffffffff166112f682610900565b73ffffffffffffffffffffffffffffffffffffffff161461134c576040517f08c379a000000000000000000000000000000000000000000000000000000000815260040161134390612bbb565b60405180910390fd5b6004600082815260200190815260200160002060006101000a81549073ffffffffffffffffffffffffffffffffffffffff02191690556001600360008573ffffffffffffffffffffffffffffffffffffffff1673ffffffffffffffffffffffffffffffffffffffff168152602001908152602001600020600082825403925050819055506001600360008473ffffffffffffffffffffffffffffffffffffffff1673ffffffffffffffffffffffffffffffffffffffff16815260200190815260200160002060008282540192505081905550816002600083815260200190815260200160002060006101000a81548173ffffffffffffffffffffffffffffffffffffffff021916908373ffffffffffffffffffffffffffffffffffffffff160217905550808273ffffffffffffffffffffffffffffffffffffffff168473ffffffffffffffffffffffffffffffffffffffff167fddf252ad1be2c89b69c2b068fc378daa952ba7f163c4a11628f55a4df523b3ef60405160405180910390a46114d88383836001611a97565b505050565b6114e561108e565b73ffffffffffffffffffffffffffffffffffffffff16611503610b15565b73ffffffffffffffffffffffffffffffffffffffff1614611559576040517f08c379a000000000000000000000000000000000000000000000000000000000815260040161155090612cb9565b60405180910390fd5b565b60006002600083815260200190815260200160002060009054906101000a900473ffffffffffffffffffffffffffffffffffffffff169050919050565b6000600760009054906101000a900473ffffffffffffffffffffffffffffffffffffffff16905081600760006101000a81548173ffffffffffffffffffffffffffffffffffffffff021916908373ffffffffffffffffffffffffffffffffffffffff1602179055508173ffffffffffffffffffffffffffffffffffffffff168173ffffffffffffffffffffffffffffffffffffffff167f8be0079c531659141344cd1fd0a4f28419497f9722a3daafe3b4186f6b6457e060405160405180910390a35050565b8173ffffffffffffffffffffffffffffffffffffffff168373ffffffffffffffffffffffffffffffffffffffff16036116cc576040517f08c379a00000000000000000000000000000000000000000000000000000000081526004016116c390612d25565b60405180910390fd5b80600560008573ffffffffffffffffffffffffffffffffffffffff1673ffffffffffffffffffffffffffffffffffffffff16815260200190815260200160002060008473ffffffffffffffffffffffffffffffffffffffff1673ffffffffffffffffffffffffffffffffffffffff16815260200190815260200160002060006101000a81548160ff0219169083151502179055508173ffffffffffffffffffffffffffffffffffffffff168373ffffffffffffffffffffffffffffffffffffffff167f17307eab39ab6107e8899845ad3d59bd9653f200f220920489ca2b5937696c31836040516117bd9190612194565b60405180910390a3505050565b6117d58484846111e4565b6117e184848484611a9d565b611820576040517f08c379a000000000000000000000000000000000000000000000000000000000815260040161181790612db7565b60405180910390fd5b50505050565b611840828260405180602001604052806000815250611c24565b5050565b61184d82611930565b61188c576040517f08c379a000000000000000000000000000000000000000000000000000000000815260040161188390612e49565b60405180910390fd5b806006600084815260200190815260200160002090816118ac9190613015565b505050565b606060405180602001604052806000815250905090565b60606118d382611043565b60006118dd6118b1565b905060008151116118fd5760405180602001604052806000815250611928565b8061190784611c7f565b604051602001611918929190612a93565b6040516020818303038152906040525b915050919050565b60008073ffffffffffffffffffffffffffffffffffffffff166119528361155b565b73ffffffffffffffffffffffffffffffffffffffff1614159050919050565b6001811115611a9157600073ffffffffffffffffffffffffffffffffffffffff168473ffffffffffffffffffffffffffffffffffffffff1614611a055780600360008673ffffffffffffffffffffffffffffffffffffffff1673ffffffffffffffffffffffffffffffffffffffff16815260200190815260200160002060008282546119fd91906130e7565b925050819055505b600073ffffffffffffffffffffffffffffffffffffffff168373ffffffffffffffffffffffffffffffffffffffff1614611a905780600360008573ffffffffffffffffffffffffffffffffffffffff1673ffffffffffffffffffffffffffffffffffffffff1681526020019081526020016000206000828254611a889190612a23565b925050819055505b5b50505050565b50505050565b6000611abe8473ffffffffffffffffffffffffffffffffffffffff16611d4d565b15611c17578373ffffffffffffffffffffffffffffffffffffffff1663150b7a02611ae761108e565b8786866040518563ffffffff1660e01b8152600401611b099493929190613170565b6020604051808303816000875af1925050508015611b4557506040513d601f19601f82011682018060405250810190611b4291906131d1565b60015b611bc7573d8060008114611b75576040519150601f19603f3d011682016040523d82523d6000602084013e611b7a565b606091505b506000815103611bbf576040517f08c379a0000000000000000000000000000000000000000000000000000000008152600401611bb690612db7565b60405180910390fd5b805181602001fd5b63150b7a0260e01b7bffffffffffffffffffffffffffffffffffffffffffffffffffffffff1916817bffffffffffffffffffffffffffffffffffffffffffffffffffffffff191614915050611c1c565b600190505b949350505050565b611c2e8383611d70565b611c3b6000848484611a9d565b611c7a576040517f08c379a0000000000000000000000000000000000000000000000000000000008152600401611c7190612db7565b60405180910390fd5b505050565b606060006001611c8e84611f8d565b01905060008167ffffffffffffffff811115611cad57611cac6124ac565b5b6040519080825280601f01601f191660200182016040528015611cdf5781602001600182028036833780820191505090505b509050600082602001820190505b600115611d42578080600190039150507f3031323334353637383961626364656600000000000000000000000000000000600a86061a8153600a8581611d3657611d356131fe565b5b04945060008503611ced575b819350505050919050565b6000808273ffffffffffffffffffffffffffffffffffffffff163b119050919050565b600073ffffffffffffffffffffffffffffffffffffffff168273ffffffffffffffffffffffffffffffffffffffff1603611ddf576040517f08c379a0000000000000000000000000000000000000000000000000000000008152600401611dd690613279565b60405180910390fd5b611de881611930565b15611e28576040517f08c379a0000000000000000000000000000000000000000000000000000000008152600401611e1f906132e5565b60405180910390fd5b611e36600083836001611971565b611e3f81611930565b15611e7f576040517f08c379a0000000000000000000000000000000000000000000000000000000008152600401611e76906132e5565b60405180910390fd5b6001600360008473ffffffffffffffffffffffffffffffffffffffff1673ffffffffffffffffffffffffffffffffffffffff16815260200190815260200160002060008282540192505081905550816002600083815260200190815260200160002060006101000a81548173ffffffffffffffffffffffffffffffffffffffff021916908373ffffffffffffffffffffffffffffffffffffffff160217905550808273ffffffffffffffffffffffffffffffffffffffff16600073ffffffffffffffffffffffffffffffffffffffff167fddf252ad1be2c89b69c2b068fc378daa952ba7f163c4a11628f55a4df523b3ef60405160405180910390a4611f89600083836001611a97565b5050565b600080600090507a184f03e93ff9f4daa797ed6e38ed64bf6a1f0100000000000000008310611feb577a184f03e93ff9f4daa797ed6e38ed64bf6a1f0100000000000000008381611fe157611fe06131fe565b5b0492506040810190505b6d04ee2d6d415b85acef81000000008310612028576d04ee2d6d415b85acef8100000000838161201e5761201d6131fe565b5b0492506020810190505b662386f26fc10000831061205757662386f26fc10000838161204d5761204c6131fe565b5b0492506010810190505b6305f5e1008310612080576305f5e1008381612076576120756131fe565b5b0492506008810190505b61271083106120a557612710838161209b5761209a6131fe565b5b0492506004810190505b606483106120c857606483816120be576120bd6131fe565b5b0492506002810190505b600a83106120d7576001810190505b80915050919050565b6000604051905090565b600080fd5b600080fd5b60007fffffffff0000000000000000000000000000000000000000000000000000000082169050919050565b612129816120f4565b811461213457600080fd5b50565b60008135905061214681612120565b92915050565b600060208284031215612162576121616120ea565b5b600061217084828501612137565b91505092915050565b60008115159050919050565b61218e81612179565b82525050565b60006020820190506121a96000830184612185565b92915050565b600081519050919050565b600082825260208201905092915050565b60005b838110156121e95780820151818401526020810190506121ce565b60008484015250505050565b6000601f19601f8301169050919050565b6000612211826121af565b61221b81856121ba565b935061222b8185602086016121cb565b612234816121f5565b840191505092915050565b600060208201905081810360008301526122598184612206565b905092915050565b6000819050919050565b61227481612261565b811461227f57600080fd5b50565b6000813590506122918161226b565b92915050565b6000602082840312156122ad576122ac6120ea565b5b60006122bb84828501612282565b91505092915050565b600073ffffffffffffffffffffffffffffffffffffffff82169050919050565b60006122ef826122c4565b9050919050565b6122ff816122e4565b82525050565b600060208201905061231a60008301846122f6565b92915050565b612329816122e4565b811461233457600080fd5b50565b60008135905061234681612320565b92915050565b60008060408385031215612363576123626120ea565b5b600061237185828601612337565b925050602061238285828601612282565b9150509250929050565b6000806000606084860312156123a5576123a46120ea565b5b60006123b386828701612337565b93505060206123c486828701612337565b92505060406123d586828701612282565b9150509250925092565b6123e881612261565b82525050565b600060208201905061240360008301846123df565b92915050565b60006020828403121561241f5761241e6120ea565b5b600061242d84828501612337565b91505092915050565b61243f81612179565b811461244a57600080fd5b50565b60008135905061245c81612436565b92915050565b60008060408385031215612479576124786120ea565b5b600061248785828601612337565b92505060206124988582860161244d565b9150509250929050565b600080fd5b600080fd5b7f4e487b7100000000000000000000000000000000000000000000000000000000600052604160045260246000fd5b6124e4826121f5565b810181811067ffffffffffffffff82111715612503576125026124ac565b5b80604052505050565b60006125166120e0565b905061252282826124db565b919050565b600067ffffffffffffffff821115612542576125416124ac565b5b61254b826121f5565b9050602081019050919050565b82818337600083830152505050565b600061257a61257584612527565b61250c565b905082815260208101848484011115612596576125956124a7565b5b6125a1848285612558565b509392505050565b600082601f8301126125be576125bd6124a2565b5b81356125ce848260208601612567565b91505092915050565b600080600080608085870312156125f1576125f06120ea565b5b60006125ff87828801612337565b945050602061261087828801612337565b935050604061262187828801612282565b925050606085013567ffffffffffffffff811115612642576126416120ef565b5b61264e878288016125a9565b91505092959194509250565b60008060408385031215612671576126706120ea565b5b600061267f85828601612337565b925050602061269085828601612337565b9150509250929050565b7f4e487b7100000000000000000000000000000000000000000000000000000000600052602260045260246000fd5b600060028204905060018216806126e157607f821691505b6020821081036126f4576126f361269a565b5b50919050565b7f4552433732313a20617070726f76616c20746f2063757272656e74206f776e6560008201527f7200000000000000000000000000000000000000000000000000000000000000602082015250565b60006127566021836121ba565b9150612761826126fa565b604082019050919050565b6000602082019050818103600083015261278581612749565b9050919050565b7f4552433732313a20617070726f76652063616c6c6572206973206e6f7420746f60008201527f6b656e206f776e6572206f7220617070726f76656420666f7220616c6c000000602082015250565b60006127e8603d836121ba565b91506127f38261278c565b604082019050919050565b60006020820190508181036000830152612817816127db565b9050919050565b7f4552433732313a2063616c6c6572206973206e6f7420746f6b656e206f776e6560008201527f72206f7220617070726f76656400000000000000000000000000000000000000602082015250565b600061287a602d836121ba565b91506128858261281e565b604082019050919050565b600060208201905081810360008301526128a98161286d565b9050919050565b600081905092915050565b50565b60006128cb6000836128b0565b91506128d6826128bb565b600082019050919050565b60006128ec826128be565b9150819050919050565b7f4552433732313a20696e76616c696420746f6b656e2049440000000000000000600082015250565b600061292c6018836121ba565b9150612937826128f6565b602082019050919050565b6000602082019050818103600083015261295b8161291f565b9050919050565b7f4552433732313a2061646472657373207a65726f206973206e6f74206120766160008201527f6c6964206f776e65720000000000000000000000000000000000000000000000602082015250565b60006129be6029836121ba565b91506129c982612962565b604082019050919050565b600060208201905081810360008301526129ed816129b1565b9050919050565b7f4e487b7100000000000000000000000000000000000000000000000000000000600052601160045260246000fd5b6000612a2e82612261565b9150612a3983612261565b9250828201905080821115612a5157612a506129f4565b5b92915050565b600081905092915050565b6000612a6d826121af565b612a778185612a57565b9350612a878185602086016121cb565b80840191505092915050565b6000612a9f8285612a62565b9150612aab8284612a62565b91508190509392505050565b7f4f776e61626c653a206e6577206f776e657220697320746865207a65726f206160008201527f6464726573730000000000000000000000000000000000000000000000000000602082015250565b6000612b136026836121ba565b9150612b1e82612ab7565b604082019050919050565b60006020820190508181036000830152612b4281612b06565b9050919050565b7f4552433732313a207472616e736665722066726f6d20696e636f72726563742060008201527f6f776e6572000000000000000000000000000000000000000000000000000000602082015250565b6000612ba56025836121ba565b9150612bb082612b49565b604082019050919050565b60006020820190508181036000830152612bd481612b98565b9050919050565b7f4552433732313a207472616e7366657220746f20746865207a65726f2061646460008201527f7265737300000000000000000000000000000000000000000000000000000000602082015250565b6000612c376024836121ba565b9150612c4282612bdb565b604082019050919050565b60006020820190508181036000830152612c6681612c2a565b9050919050565b7f4f776e61626c653a2063616c6c6572206973206e6f7420746865206f776e6572600082015250565b6000612ca36020836121ba565b9150612cae82612c6d565b602082019050919050565b60006020820190508181036000830152612cd281612c96565b9050919050565b7f4552433732313a20617070726f766520746f2063616c6c657200000000000000600082015250565b6000612d0f6019836121ba565b9150612d1a82612cd9565b602082019050919050565b60006020820190508181036000830152612d3e81612d02565b9050919050565b7f4552433732313a207472616e7366657220746f206e6f6e20455243373231526560008201527f63656976657220696d706c656d656e7465720000000000000000000000000000602082015250565b6000612da16032836121ba565b9150612dac82612d45565b604082019050919050565b60006020820190508181036000830152612dd081612d94565b9050919050565b7f45524337323155524953746f726167653a2055524920736574206f66206e6f6e60008201527f6578697374656e7420746f6b656e000000000000000000000000000000000000602082015250565b6000612e33602e836121ba565b9150612e3e82612dd7565b604082019050919050565b60006020820190508181036000830152612e6281612e26565b9050919050565b60008190508160005260206000209050919050565b60006020601f8301049050919050565b600082821b905092915050565b600060088302612ecb7fffffffffffffffffffffffffffffffffffffffffffffffffffffffffffffffff82612e8e565b612ed58683612e8e565b95508019841693508086168417925050509392505050565b6000819050919050565b6000612f12612f0d612f0884612261565b612eed565b612261565b9050919050565b6000819050919050565b612f2c83612ef7565b612f40612f3882612f19565b848454612e9b565b825550505050565b600090565b612f55612f48565b612f60818484612f23565b505050565b5b81811015612f8457612f79600082612f4d565b600181019050612f66565b5050565b601f821115612fc957612f9a81612e69565b612fa384612e7e565b81016020851015612fb2578190505b612fc6612fbe85612e7e565b830182612f65565b50505b505050565b600082821c905092915050565b6000612fec60001984600802612fce565b1980831691505092915050565b60006130058383612fdb565b9150826002028217905092915050565b61301e826121af565b67ffffffffffffffff811115613037576130366124ac565b5b61304182546126c9565b61304c828285612f88565b600060209050601f83116001811461307f576000841561306d578287015190505b6130778582612ff9565b8655506130df565b601f19841661308d86612e69565b60005b828110156130b557848901518255600182019150602085019450602081019050613090565b868310156130d257848901516130ce601f891682612fdb565b8355505b6001600288020188555050505b505050505050565b60006130f282612261565b91506130fd83612261565b9250828203905081811115613115576131146129f4565b5b92915050565b600081519050919050565b600082825260208201905092915050565b60006131428261311b565b61314c8185613126565b935061315c8185602086016121cb565b613165816121f5565b840191505092915050565b600060808201905061318560008301876122f6565b61319260208301866122f6565b61319f60408301856123df565b81810360608301526131b18184613137565b905095945050505050565b6000815190506131cb81612120565b92915050565b6000602082840312156131e7576131e66120ea565b5b60006131f5848285016131bc565b91505092915050565b7f4e487b7100000000000000000000000000000000000000000000000000000000600052601260045260246000fd5b7f4552433732313a206d696e7420746f20746865207a65726f2061646472657373600082015250565b60006132636020836121ba565b915061326e8261322d565b602082019050919050565b6000602082019050818103600083015261329281613256565b9050919050565b7f4552433732313a20746f6b656e20616c7265616479206d696e74656400000000600082015250565b60006132cf601c836121ba565b91506132da82613299565b602082019050919050565b600060208201905081810360008301526132fe816132c2565b905091905056fea26469706673582212205d4d18ec57c678765c361ddffb2a41f03d9ef418870644bf1d77843cffe465d564736f6c63430008110033",
  "devdoc": {
    "author": "Ali Murtaza Memon",
    "custom:portfolio": "This is my portfolio project.",
    "details": "This contract uses the ERC721URIStorage extension of ERC721 which provides the way to update the token uri with function `_setTokenURI`.",
    "events": {
      "NFTMinted(address,uint256,uint256)": {
        "details": "This event will be emitted inside mintNft function.",
        "params": {
          "owner": "will be address who call the mintNft function.",
          "tokenId": "will be the token id which user will have minted.",
          "value": "will be the amount on which NFT will be minted."
        }
      },
      "Withdraw(uint256,uint256)": {
        "details": "This event will be emitted inside withdraw function.",
        "params": {
          "amount": "will be the amount owner will withdraw at the timestamp.",
          "timestamp": "will be the time of withdrawl."
        }
      }
    },
    "kind": "dev",
    "methods": {
      "approve(address,uint256)": {
        "details": "See {IERC721-approve}."
      },
      "balanceOf(address)": {
        "details": "See {IERC721-balanceOf}."
      },
      "constructor": {
        "params": {
          "mintFee": "will be the fee required to mint an NFT.",
          "name": "will be the name of the token.",
          "nftTokenUri": "will be the token metadata ipfs hash.",
          "symbol": "will be the symbol of the token."
        }
      },
      "getApproved(uint256)": {
        "details": "See {IERC721-getApproved}."
      },
      "isApprovedForAll(address,address)": {
        "details": "See {IERC721-isApprovedForAll}."
      },
      "mintNft()": {
        "details": "here I am using the _setTokenURI function to set the token uri."
      },
      "name()": {
        "details": "See {IERC721Metadata-name}."
      },
      "owner()": {
        "details": "Returns the address of the current owner."
      },
      "ownerOf(uint256)": {
        "details": "See {IERC721-ownerOf}."
      },
      "renounceOwnership()": {
        "details": "Leaves the contract without owner. It will not be possible to call `onlyOwner` functions anymore. Can only be called by the current owner. NOTE: Renouncing ownership will leave the contract without an owner, thereby removing any functionality that is only available to the owner."
      },
      "safeTransferFrom(address,address,uint256)": {
        "details": "See {IERC721-safeTransferFrom}."
      },
      "safeTransferFrom(address,address,uint256,bytes)": {
        "details": "See {IERC721-safeTransferFrom}."
      },
      "setApprovalForAll(address,bool)": {
        "details": "See {IERC721-setApprovalForAll}."
      },
      "supportsInterface(bytes4)": {
        "details": "See {IERC165-supportsInterface}."
      },
      "symbol()": {
        "details": "See {IERC721Metadata-symbol}."
      },
      "tokenURI(uint256)": {
        "details": "See {IERC721Metadata-tokenURI}."
      },
      "transferFrom(address,address,uint256)": {
        "details": "See {IERC721-transferFrom}."
      },
      "transferOwnership(address)": {
        "details": "Transfers ownership of the contract to a new account (`newOwner`). Can only be called by the current owner."
      }
    },
    "title": "NFT - A ERC721URIStorage version of smart contract.",
    "version": 1
  },
  "userdoc": {
    "kind": "user",
    "methods": {
      "mintNft()": {
        "notice": "mintNft will mint the NFT on the blockchain."
      },
      "withdraw()": {
        "notice": "withdraw will transfer all of the sold nfts funds to owner of the contract."
      }
    },
    "notice": "This contract will mint ERC721 (aka NFT - Non-Fungible-Token) token",
    "version": 1
  },
  "storageLayout": {
    "storage": [
      {
        "astId": 138,
        "contract": "contracts/NFT.sol:NFT",
        "label": "_name",
        "offset": 0,
        "slot": "0",
        "type": "t_string_storage"
      },
      {
        "astId": 140,
        "contract": "contracts/NFT.sol:NFT",
        "label": "_symbol",
        "offset": 0,
        "slot": "1",
        "type": "t_string_storage"
      },
      {
        "astId": 144,
        "contract": "contracts/NFT.sol:NFT",
        "label": "_owners",
        "offset": 0,
        "slot": "2",
        "type": "t_mapping(t_uint256,t_address)"
      },
      {
        "astId": 148,
        "contract": "contracts/NFT.sol:NFT",
        "label": "_balances",
        "offset": 0,
        "slot": "3",
        "type": "t_mapping(t_address,t_uint256)"
      },
      {
        "astId": 152,
        "contract": "contracts/NFT.sol:NFT",
        "label": "_tokenApprovals",
        "offset": 0,
        "slot": "4",
        "type": "t_mapping(t_uint256,t_address)"
      },
      {
        "astId": 158,
        "contract": "contracts/NFT.sol:NFT",
        "label": "_operatorApprovals",
        "offset": 0,
        "slot": "5",
        "type": "t_mapping(t_address,t_mapping(t_address,t_bool))"
      },
      {
        "astId": 1204,
        "contract": "contracts/NFT.sol:NFT",
        "label": "_tokenURIs",
        "offset": 0,
        "slot": "6",
        "type": "t_mapping(t_uint256,t_string_storage)"
      },
      {
        "astId": 7,
        "contract": "contracts/NFT.sol:NFT",
        "label": "_owner",
        "offset": 0,
        "slot": "7",
        "type": "t_address"
      },
      {
        "astId": 2788,
        "contract": "contracts/NFT.sol:NFT",
        "label": "_nftTokenUri",
        "offset": 0,
        "slot": "8",
        "type": "t_string_storage"
      },
      {
        "astId": 2792,
        "contract": "contracts/NFT.sol:NFT",
        "label": "_tokenCounter",
        "offset": 0,
        "slot": "9",
        "type": "t_uint256"
      }
    ],
    "types": {
      "t_address": {
        "encoding": "inplace",
        "label": "address",
        "numberOfBytes": "20"
      },
      "t_bool": {
        "encoding": "inplace",
        "label": "bool",
        "numberOfBytes": "1"
      },
      "t_mapping(t_address,t_bool)": {
        "encoding": "mapping",
        "key": "t_address",
        "label": "mapping(address => bool)",
        "numberOfBytes": "32",
        "value": "t_bool"
      },
      "t_mapping(t_address,t_mapping(t_address,t_bool))": {
        "encoding": "mapping",
        "key": "t_address",
        "label": "mapping(address => mapping(address => bool))",
        "numberOfBytes": "32",
        "value": "t_mapping(t_address,t_bool)"
      },
      "t_mapping(t_address,t_uint256)": {
        "encoding": "mapping",
        "key": "t_address",
        "label": "mapping(address => uint256)",
        "numberOfBytes": "32",
        "value": "t_uint256"
      },
      "t_mapping(t_uint256,t_address)": {
        "encoding": "mapping",
        "key": "t_uint256",
        "label": "mapping(uint256 => address)",
        "numberOfBytes": "32",
        "value": "t_address"
      },
      "t_mapping(t_uint256,t_string_storage)": {
        "encoding": "mapping",
        "key": "t_uint256",
        "label": "mapping(uint256 => string)",
        "numberOfBytes": "32",
        "value": "t_string_storage"
      },
      "t_string_storage": {
        "encoding": "bytes",
        "label": "string",
        "numberOfBytes": "32"
      },
      "t_uint256": {
        "encoding": "inplace",
        "label": "uint256",
        "numberOfBytes": "32"
      }
    }
  }
}